:020000002F28A7
:100008008A0183018B1C252820000C1924280C1A2E
:1000180019288C140430FC001C30FD00FD0B12283C
:10002800FC0B122800008C1024288C160430FC00CD
:100038001C30FD00FD0B1E28FC0B1E2800008C1236
:040048008B10090010
:10004C0012001E00F003031D2628F103031D2628B1
:02005C0008009A
:10005E002100991519129912191323008C012100F0
:10006E008C010C150C1620008C108C1290308B000D
:06007E00210015134128CA
:020000040001F9
:04000E00A43F1336C2
:00000001FF
